{
  "contractName": "Plot",
  "abi": [
    {
      "constant": true,
      "inputs": [],
      "name": "inventory",
      "outputs": [
        {
          "name": "size",
          "type": "uint256"
        }
      ],
      "payable": false,
      "stateMutability": "view",
      "type": "function"
    },
    {
      "constant": true,
      "inputs": [
        {
          "name": "",
          "type": "uint256"
        }
      ],
      "name": "tiles",
      "outputs": [
        {
          "name": "",
          "type": "bytes1"
        }
      ],
      "payable": false,
      "stateMutability": "view",
      "type": "function"
    },
    {
      "constant": true,
      "inputs": [],
      "name": "size",
      "outputs": [
        {
          "name": "",
          "type": "uint8"
        }
      ],
      "payable": false,
      "stateMutability": "view",
      "type": "function"
    },
    {
      "constant": true,
      "inputs": [
        {
          "name": "",
          "type": "uint256"
        }
      ],
      "name": "actionsInProgress",
      "outputs": [
        {
          "name": "name",
          "type": "string"
        },
        {
          "name": "startTime",
          "type": "uint256"
        },
        {
          "name": "duration",
          "type": "uint256"
        },
        {
          "components": [
            {
              "name": "name",
              "type": "string"
            },
            {
              "name": "value",
              "type": "uint256"
            }
          ],
          "name": "rewardOnCompletion",
          "type": "tuple"
        }
      ],
      "payable": false,
      "stateMutability": "view",
      "type": "function"
    },
    {
      "inputs": [],
      "payable": false,
      "stateMutability": "nonpayable",
      "type": "constructor"
    },
    {
      "anonymous": false,
      "inputs": [
        {
          "indexed": false,
          "name": "",
          "type": "uint8"
        },
        {
          "indexed": false,
          "name": "",
          "type": "uint8"
        },
        {
          "indexed": false,
          "name": "",
          "type": "uint256"
        },
        {
          "indexed": false,
          "name": "",
          "type": "string"
        }
      ],
      "name": "ActionStarted",
      "type": "event"
    },
    {
      "constant": false,
      "inputs": [],
      "name": "getTiles",
      "outputs": [
        {
          "name": "",
          "type": "bytes1[64]"
        }
      ],
      "payable": false,
      "stateMutability": "nonpayable",
      "type": "function"
    },
    {
      "constant": false,
      "inputs": [
        {
          "name": "_x",
          "type": "uint8"
        },
        {
          "name": "_y",
          "type": "uint8"
        },
        {
          "name": "_item",
          "type": "string"
        }
      ],
      "name": "plant",
      "outputs": [],
      "payable": false,
      "stateMutability": "nonpayable",
      "type": "function"
    },
    {
      "constant": false,
      "inputs": [
        {
          "name": "_x",
          "type": "uint8"
        },
        {
          "name": "_y",
          "type": "uint8"
        },
        {
          "name": "_item",
          "type": "string"
        }
      ],
      "name": "fish",
      "outputs": [],
      "payable": false,
      "stateMutability": "nonpayable",
      "type": "function"
    }
  ],
  "bytecode": "0x608060405234801561001057600080fd5b50600042604051602001808281526020019150506040516020818303038152906040528051906020012090506000600142016040516020018082815260200191505060405160208183030381529060405280519060200120905060008090505b6008800260ff168160ff1610156101b9578260028260ff1681151561009157fe5b0460ff166020811015156100a157fe5b1a7f01000000000000000000000000000000000000000000000000000000000000000260008260ff166040811015156100d657fe5b602091828204019190066101000a81548160ff02191690837f0100000000000000000000000000000000000000000000000000000000000000900402179055508160028260ff1681151561012657fe5b0460ff1660208110151561013657fe5b1a7f01000000000000000000000000000000000000000000000000000000000000000260006001830160ff1660408110151561016e57fe5b602091828204019190066101000a81548160ff02191690837f010000000000000000000000000000000000000000000000000000000000000090040217905550600281019050610070565b5050506113c5806101cb6000396000f3fe60806040526004361061007d576000357c01000000000000000000000000000000000000000000000000000000009004806315d52a5c146100825780631d3a01c6146100ad5780632fd2e742146100d85780636408928014610115578063949d225d1461013e5780639b20133214610169578063f059225414610192575b600080fd5b34801561008e57600080fd5b506100976101d2565b6040516100a491906111d8565b60405180910390f35b3480156100b957600080fd5b506100c26101df565b6040516100cf919061110e565b60405180910390f35b3480156100e457600080fd5b506100ff60048036036100fa9190810190610ec8565b610296565b60405161010c919061112a565b60405180910390f35b34801561012157600080fd5b5061013c60048036036101379190810190610ef1565b6102de565b005b34801561014a57600080fd5b506101536106d5565b60405161016091906111f3565b60405180910390f35b34801561017557600080fd5b50610190600480360361018b9190810190610ef1565b6106da565b005b34801561019e57600080fd5b506101b960048036036101b49190810190610ec8565b610ad1565b6040516101c99493929190611145565b60405180910390f35b6101428060020154905081565b6101e7610d81565b6101ef610c54565b600060408060200260405190810160405280929190826040801561028c576020028201916000905b82829054906101000a90047f0100000000000000000000000000000000000000000000000000000000000000027effffffffffffffffffffffffffffffffffffffffffffffffffffffffffffff1916815260200190600101906020826000010492830192600103820291508084116102175790505b5050505050905090565b6000816040811015156102a557fe5b60209182820401919006915054906101000a90047f01000000000000000000000000000000000000000000000000000000000000000281565b82828260008360ff16101580156102fb5750600860ff168360ff16105b151561033c576040517f08c379a000000000000000000000000000000000000000000000000000000000815260040161033390611198565b60405180910390fd5b60008260ff16101580156103565750600860ff168260ff16105b1515610397576040517f08c379a000000000000000000000000000000000000000000000000000000000815260040161038e90611198565b60405180910390fd5b858585602060405190810160405280600081525080519060200120600283600886020160ff166040811015156103c957fe5b60050201600001604051808280546001816001161561010002031660029004801561042b5780601f1061040957610100808354040283529182019161042b565b820191906000526020600020905b815481529060010190602001808311610417575b505091505060405180910390201480610481575042600283600886020160ff1660408110151561045757fe5b6005020160020154600284600887020160ff1660408110151561047657fe5b600502016001015401105b15156104c2576040517f08c379a00000000000000000000000000000000000000000000000000000000081526004016104b9906111b8565b60405180910390fd5b600061014260000160405180807f6261697400000000000000000000000000000000000000000000000000000000815250600401905090815260200160405180910390206002015411151561051657600080fd5b6080604051908101604052806040805190810160405280600481526020017f46697368000000000000000000000000000000000000000000000000000000008152508152602001428152602001603c815260200160408051908101604052806040805190810160405280600381526020017f436f6400000000000000000000000000000000000000000000000000000000008152508152602001601481525081525060028960088c020160ff166040811015156105cf57fe5b6005020160008201518160000190805190602001906105ef929190610da5565b5060208201518160010155604082015181600201556060820151816003016000820151816000019080519060200190610629929190610da5565b5060208201518160010155505090505061014260000160405180807f62616974000000000000000000000000000000000000000000000000000000008152506004019050908152602001604051809103902060020160008154809291906001900391905055507fcf7fa6e6c17c39cdc326f8706b3a5c831be6f1f08c30f4650a7895707ba374828989426040516106c29392919061120e565b60405180910390a1505050505050505050565b600881565b82828260008360ff16101580156106f75750600860ff168360ff16105b1515610738576040517f08c379a000000000000000000000000000000000000000000000000000000000815260040161072f90611198565b60405180910390fd5b60008260ff16101580156107525750600860ff168260ff16105b1515610793576040517f08c379a000000000000000000000000000000000000000000000000000000000815260040161078a90611198565b60405180910390fd5b858585602060405190810160405280600081525080519060200120600283600886020160ff166040811015156107c557fe5b6005020160000160405180828054600181600116156101000203166002900480156108275780601f10610805576101008083540402835291820191610827565b820191906000526020600020905b815481529060010190602001808311610813575b50509150506040518091039020148061087d575042600283600886020160ff1660408110151561085357fe5b6005020160020154600284600887020160ff1660408110151561087257fe5b600502016001015401105b15156108be576040517f08c379a00000000000000000000000000000000000000000000000000000000081526004016108b5906111b8565b60405180910390fd5b600061014260000160405180807f7365656400000000000000000000000000000000000000000000000000000000815250600401905090815260200160405180910390206002015411151561091257600080fd5b6080604051908101604052806040805190810160405280600b81526020017f506c616e742073656564730000000000000000000000000000000000000000008152508152602001428152602001603c815260200160408051908101604052806040805190810160405280600781526020017f436172726f7473000000000000000000000000000000000000000000000000008152508152602001600a81525081525060028960088c020160ff166040811015156109cb57fe5b6005020160008201518160000190805190602001906109eb929190610da5565b5060208201518160010155604082015181600201556060820151816003016000820151816000019080519060200190610a25929190610da5565b5060208201518160010155505090505061014260000160405180807f73656564000000000000000000000000000000000000000000000000000000008152506004019050908152602001604051809103902060020160008154809291906001900391905055507fcf7fa6e6c17c39cdc326f8706b3a5c831be6f1f08c30f4650a7895707ba37482898942604051610abe9392919061120e565b60405180910390a1505050505050505050565b600281604081101515610ae057fe5b60050201600091509050806000018054600181600116156101000203166002900480601f016020809104026020016040519081016040528092919081815260200182805460018160011615610100020316600290048015610b825780601f10610b5757610100808354040283529160200191610b82565b820191906000526020600020905b815481529060010190602001808311610b6557829003601f168201915b50505050509080600101549080600201549080600301604080519081016040529081600082018054600181600116156101000203166002900480601f016020809104026020016040519081016040528092919081815260200182805460018160011615610100020316600290048015610c3c5780601f10610c1157610100808354040283529160200191610c3c565b820191906000526020600020905b815481529060010190602001808311610c1f57829003601f168201915b50505050508152602001600182015481525050905084565b60008090505b6008800260ff16811015610d7e5742600282604081101515610c7857fe5b6005020160020154600283604081101515610c8f57fe5b6005020160010154011015610d71576080604051908101604052806020604051908101604052806000815250815260200160008152602001600081526020016040805190810160405280602060405190810160405280600081525081526020016000815250815250600282604081101515610d0657fe5b600502016000820151816000019080519060200190610d26929190610da5565b5060208201518160010155604082015181600201556060820151816003016000820151816000019080519060200190610d60929190610da5565b506020820151816001015550509050505b8080600101915050610c5a565b50565b61080060405190810160405280604090602082028038833980820191505090505090565b828054600181600116156101000203166002900490600052602060002090601f016020900481019282601f10610de657805160ff1916838001178555610e14565b82800160010185558215610e14579182015b82811115610e13578251825591602001919060010190610df8565b5b509050610e219190610e25565b5090565b610e4791905b80821115610e43576000816000905550600101610e2b565b5090565b90565b600082601f8301121515610e5d57600080fd5b8135610e70610e6b82611285565b611258565b91508082526020830160208301858383011115610e8c57600080fd5b610e97838284611338565b50505092915050565b6000610eac8235611321565b905092915050565b6000610ec0823561132b565b905092915050565b600060208284031215610eda57600080fd5b6000610ee884828501610ea0565b91505092915050565b600080600060608486031215610f0657600080fd5b6000610f1486828701610eb4565b9350506020610f2586828701610eb4565b925050604084013567ffffffffffffffff811115610f4257600080fd5b610f4e86828701610e4a565b9150509250925092565b610f61816112bb565b610f6a826112b1565b60005b82811015610f9c57610f80858351610fa3565b610f89826112d1565b9150602085019450600181019050610f6d565b5050505050565b610fac816112de565b82525050565b6000610fbd826112c6565b808452610fd1816020860160208601611347565b610fda8161137a565b602085010191505092915050565b6000601682527f496e76616c69642063656c6c20746f20706c616e742e000000000000000000006020830152604082019050919050565b6000600d82527f536565647320706c616e746564000000000000000000000000000000000000006020830152604082019050919050565b6000602582527f416e6f7468657220616374696f6e20697320616c726561647920696e2070726f60208301527f67726573730000000000000000000000000000000000000000000000000000006040830152606082019050919050565b600060408301600083015184820360008601526110d08282610fb2565b91505060208301516110e560208601826110f0565b508091505092915050565b6110f98161130a565b82525050565b61110881611314565b82525050565b6000610800820190506111246000830184610f58565b92915050565b600060208201905061113f6000830184610fa3565b92915050565b6000608082019050818103600083015261115f8187610fb2565b905061116e60208301866110f0565b61117b60408301856110f0565b818103606083015261118d81846110b3565b905095945050505050565b600060208201905081810360008301526111b181610fe8565b9050919050565b600060208201905081810360008301526111d181611056565b9050919050565b60006020820190506111ed60008301846110f0565b92915050565b600060208201905061120860008301846110ff565b92915050565b600060808201905061122360008301866110ff565b61123060208301856110ff565b61123d60408301846110f0565b818103606083015261124e8161101f565b9050949350505050565b6000604051905081810181811067ffffffffffffffff8211171561127b57600080fd5b8060405250919050565b600067ffffffffffffffff82111561129c57600080fd5b601f19601f8301169050602081019050919050565b6000819050919050565b600060409050919050565b600081519050919050565b6000602082019050919050565b60007fff0000000000000000000000000000000000000000000000000000000000000082169050919050565b6000819050919050565b600060ff82169050919050565b6000819050919050565b600060ff82169050919050565b82818337600083830152505050565b60005b8381101561136557808201518184015260208101905061134a565b83811115611374576000848401525b50505050565b6000601f19601f830116905091905056fea265627a7a72305820a3c233e42cd9fa0ae768cd85e358227c93a11f97c8fcfc9eecf6a2346f17f3056c6578706572696d656e74616cf50037",
  "source": "pragma solidity >=0.4.22 <0.9.0;\r\npragma experimental ABIEncoderV2;\r\n\r\ncontract Plot {\r\n  struct Item {\r\n    string name;\r\n    uint value;\r\n  }\r\n\r\n  struct InventoryItem {\r\n    Item item;\r\n    uint count;\r\n  }\r\n\r\n  struct Action {\r\n    string name;\r\n    uint startTime;\r\n    uint duration;\r\n    Item rewardOnCompletion;\r\n  }\r\n\r\n  struct Inventory {\r\n    mapping (string => InventoryItem) items;\r\n    string[] keys;\r\n    uint size;\r\n  }\r\n\r\n  event ActionStarted(uint8, uint8, uint, string);\r\n\r\n  uint8 constant public size = 8;\r\n  bytes1[size * size] public tiles;\r\n  Action[size * size] public actionsInProgress;\r\n  Inventory public inventory;\r\n\r\n\r\n  constructor() public {\r\n    bytes32 seed1 = keccak256(abi.encodePacked(block.timestamp));\r\n    bytes32 seed2 = keccak256(abi.encodePacked(block.timestamp + 1));\r\n    for(uint8 i = 0; i < size * size; i += 2) {\r\n        tiles[i] = seed1[i / 2];\r\n        tiles[i + 1] = seed2[i / 2];\r\n    }\r\n  }\r\n\r\n  modifier isWithinBounds(uint8 _x, uint8 _y, string memory _item) {\r\n    require(_x >= 0 && _x < size, \"Invalid cell to plant.\");\r\n    require(_y >= 0 && _y < size, \"Invalid cell to plant.\");\r\n    _;\r\n  }\r\n\r\n  modifier isNonConflictingAction(uint8 _x, uint8 _y, string memory _item) {\r\n    require(keccak256(bytes(actionsInProgress[_x * size + _y].name)) == keccak256(bytes(\"\")) ||\r\n            actionsInProgress[_x * size + _y].startTime + actionsInProgress[_x * size + _y].duration <\r\n            block.timestamp,\r\n     \"Another action is already in progress\");\r\n    _;\r\n  }\r\n\r\n  modifier hasBait() {\r\n    require(inventory.items[\"bait\"].count > 0);\r\n    _;\r\n  }\r\n\r\n  modifier hasSeed() {\r\n    require(inventory.items[\"seed\"].count > 0);\r\n    _;\r\n  }\r\n\r\n  function getTiles()\r\n    public\r\n    returns(bytes1[size * size] memory) {\r\n      updateState();\r\n      return tiles;\r\n  }\r\n\r\n  function updateState() internal {\r\n      for(uint i = 0; i < size * size; i++) {\r\n          if(actionsInProgress[i].startTime +\r\n             actionsInProgress[i].duration <\r\n             block.timestamp) {\r\n              actionsInProgress[i] = Action(\"\", 0, 0, Item(\"\", 0));\r\n          }\r\n      }\r\n  }\r\n\r\n  function plant(uint8 _x, uint8 _y, string memory _item)\r\n    public\r\n    isWithinBounds(_x, _y, _item)\r\n    isNonConflictingAction(_x, _y, _item)\r\n    hasSeed() {\r\n      actionsInProgress[_x * size + _y] = Action(\"Plant seeds\", block.timestamp, 1 minutes, Item(\"Carrots\", 10));\r\n      inventory.items[\"seed\"].count--;\r\n      emit ActionStarted(_x, _y, block.timestamp, \"Seeds planted\");\r\n  }\r\n\r\n  function fish(uint8 _x, uint8 _y, string memory _item)\r\n    public\r\n    isWithinBounds(_x, _y, _item)\r\n    isNonConflictingAction(_x, _y, _item)\r\n    hasBait() {\r\n      actionsInProgress[_x * size + _y] = Action(\"Fish\", block.timestamp, 1 minutes, Item(\"Cod\", 20));\r\n      inventory.items[\"bait\"].count--;\r\n      emit ActionStarted(_x, _y, block.timestamp, \"Seeds planted\");\r\n  }\r\n}\r\n",
  "sourcePath": "C:/Data/Projects/RPG/contracts/Plot.sol",
  "compiler": {
    "name": "solc",
    "version": "0.5.1+commit.c8a2cb62.Emscripten.clang"
  },
  "schemaVersion": "3.3.4",
  "updatedAt": "2021-03-06T19:16:50.909Z",
  "networkType": "ethereum",
  "devdoc": {
    "methods": {}
  },
  "userdoc": {
    "methods": {}
  }
}